{
  "_format": "hh-sol-artifact-1",
  "contractName": "ArtChain",
  "sourceName": "contracts/ArtChain.sol",
  "abi": [
    {
      "inputs": [],
      "stateMutability": "nonpayable",
      "type": "constructor"
    },
    {
      "anonymous": false,
      "inputs": [
        {
          "indexed": true,
          "internalType": "uint256",
          "name": "artId",
          "type": "uint256"
        },
        {
          "indexed": false,
          "internalType": "uint256",
          "name": "price",
          "type": "uint256"
        }
      ],
      "name": "ArtAdded",
      "type": "event"
    },
    {
      "anonymous": false,
      "inputs": [
        {
          "indexed": true,
          "internalType": "address",
          "name": "buyer",
          "type": "address"
        },
        {
          "indexed": true,
          "internalType": "uint256",
          "name": "artId",
          "type": "uint256"
        },
        {
          "indexed": false,
          "internalType": "uint256",
          "name": "price",
          "type": "uint256"
        }
      ],
      "name": "ArtPurchased",
      "type": "event"
    },
    {
      "anonymous": false,
      "inputs": [
        {
          "indexed": true,
          "internalType": "address",
          "name": "seller",
          "type": "address"
        },
        {
          "indexed": true,
          "internalType": "uint256",
          "name": "artId",
          "type": "uint256"
        }
      ],
      "name": "PurchaseConfirmed",
      "type": "event"
    },
    {
      "inputs": [
        {
          "internalType": "uint256",
          "name": "artId",
          "type": "uint256"
        },
        {
          "internalType": "uint256",
          "name": "price",
          "type": "uint256"
        }
      ],
      "name": "addArt",
      "outputs": [],
      "stateMutability": "nonpayable",
      "type": "function"
    },
    {
      "inputs": [
        {
          "internalType": "uint256",
          "name": "",
          "type": "uint256"
        }
      ],
      "name": "artExists",
      "outputs": [
        {
          "internalType": "bool",
          "name": "",
          "type": "bool"
        }
      ],
      "stateMutability": "view",
      "type": "function"
    },
    {
      "inputs": [
        {
          "internalType": "uint256",
          "name": "",
          "type": "uint256"
        }
      ],
      "name": "artOwners",
      "outputs": [
        {
          "internalType": "address",
          "name": "",
          "type": "address"
        }
      ],
      "stateMutability": "view",
      "type": "function"
    },
    {
      "inputs": [
        {
          "internalType": "uint256",
          "name": "",
          "type": "uint256"
        }
      ],
      "name": "artPrices",
      "outputs": [
        {
          "internalType": "uint256",
          "name": "",
          "type": "uint256"
        }
      ],
      "stateMutability": "view",
      "type": "function"
    },
    {
      "inputs": [
        {
          "internalType": "uint256",
          "name": "",
          "type": "uint256"
        }
      ],
      "name": "buyers",
      "outputs": [
        {
          "internalType": "address",
          "name": "",
          "type": "address"
        }
      ],
      "stateMutability": "view",
      "type": "function"
    },
    {
      "inputs": [
        {
          "internalType": "uint256",
          "name": "artId",
          "type": "uint256"
        }
      ],
      "name": "confirmPurchase",
      "outputs": [],
      "stateMutability": "nonpayable",
      "type": "function"
    },
    {
      "inputs": [
        {
          "internalType": "uint256",
          "name": "",
          "type": "uint256"
        }
      ],
      "name": "isConfirmed",
      "outputs": [
        {
          "internalType": "bool",
          "name": "",
          "type": "bool"
        }
      ],
      "stateMutability": "view",
      "type": "function"
    },
    {
      "inputs": [],
      "name": "owner",
      "outputs": [
        {
          "internalType": "address",
          "name": "",
          "type": "address"
        }
      ],
      "stateMutability": "view",
      "type": "function"
    },
    {
      "inputs": [
        {
          "internalType": "uint256",
          "name": "artId",
          "type": "uint256"
        }
      ],
      "name": "purchaseArt",
      "outputs": [],
      "stateMutability": "payable",
      "type": "function"
    },
    {
      "inputs": [],
      "name": "withdraw",
      "outputs": [],
      "stateMutability": "nonpayable",
      "type": "function"
    }
  ],
  "bytecode": "0x608060405234801561001057600080fd5b50336000806101000a81548173ffffffffffffffffffffffffffffffffffffffff021916908373ffffffffffffffffffffffffffffffffffffffff160217905550610f7e806100606000396000f3fe6080604052600436106100915760003560e01c806372eef4aa1161005957806372eef4aa14610158578063784547a7146101955780638da5cb5b146101d2578063cc3f6da0146101fd578063f2aa82181461023a57610091565b80632e80460514610096578063334b49a9146100d35780633ccfd60b146100fc5780634d24e9021461011357806359e91e3c1461013c575b600080fd5b3480156100a257600080fd5b506100bd60048036038101906100b89190610b2f565b610277565b6040516100ca9190610dc2565b60405180910390f35b3480156100df57600080fd5b506100fa60048036038101906100f59190610b58565b610297565b005b34801561010857600080fd5b50610111610406565b005b34801561011f57600080fd5b5061013a60048036038101906101359190610b2f565b610503565b005b61015660048036038101906101519190610b2f565b6107a2565b005b34801561016457600080fd5b5061017f600480360381019061017a9190610b2f565b610a58565b60405161018c9190610da7565b60405180910390f35b3480156101a157600080fd5b506101bc60048036038101906101b79190610b2f565b610a8b565b6040516101c99190610dc2565b60405180910390f35b3480156101de57600080fd5b506101e7610aab565b6040516101f49190610da7565b60405180910390f35b34801561020957600080fd5b50610224600480360381019061021f9190610b2f565b610acf565b6040516102319190610ebd565b60405180910390f35b34801561024657600080fd5b50610261600480360381019061025c9190610b2f565b610ae7565b60405161026e9190610da7565b60405180910390f35b60036020528060005260406000206000915054906101000a900460ff1681565b60008054906101000a900473ffffffffffffffffffffffffffffffffffffffff1673ffffffffffffffffffffffffffffffffffffffff163373ffffffffffffffffffffffffffffffffffffffff1614610325576040517f08c379a000000000000000000000000000000000000000000000000000000000815260040161031c90610ddd565b60405180910390fd5b6003600083815260200190815260200160002060009054906101000a900460ff1615610386576040517f08c379a000000000000000000000000000000000000000000000000000000000815260040161037d90610e9d565b60405180910390fd5b60016003600084815260200190815260200160002060006101000a81548160ff021916908315150217905550806002600084815260200190815260200160002081905550817f6566d76d0614321e1d60a17ff1927804303d169b391ad1385176ac779440b4c3826040516103fa9190610ebd565b60405180910390a25050565b60008054906101000a900473ffffffffffffffffffffffffffffffffffffffff1673ffffffffffffffffffffffffffffffffffffffff163373ffffffffffffffffffffffffffffffffffffffff1614610494576040517f08c379a000000000000000000000000000000000000000000000000000000000815260040161048b90610ddd565b60405180910390fd5b600047905060008054906101000a900473ffffffffffffffffffffffffffffffffffffffff1673ffffffffffffffffffffffffffffffffffffffff166108fc829081150290604051600060405180830381858888f193505050501580156104ff573d6000803e3d6000fd5b5050565b60008054906101000a900473ffffffffffffffffffffffffffffffffffffffff1673ffffffffffffffffffffffffffffffffffffffff163373ffffffffffffffffffffffffffffffffffffffff1614610591576040517f08c379a000000000000000000000000000000000000000000000000000000000815260040161058890610ddd565b60405180910390fd5b600073ffffffffffffffffffffffffffffffffffffffff166005600083815260200190815260200160002060009054906101000a900473ffffffffffffffffffffffffffffffffffffffff1673ffffffffffffffffffffffffffffffffffffffff161415610634576040517f08c379a000000000000000000000000000000000000000000000000000000000815260040161062b90610e7d565b60405180910390fd5b6004600082815260200190815260200160002060009054906101000a900460ff1615610695576040517f08c379a000000000000000000000000000000000000000000000000000000000815260040161068c90610e3d565b60405180910390fd5b60016004600083815260200190815260200160002060006101000a81548160ff02191690831515021790555060008054906101000a900473ffffffffffffffffffffffffffffffffffffffff1673ffffffffffffffffffffffffffffffffffffffff166108fc60026000848152602001908152602001600020549081150290604051600060405180830381858888f1935050505015801561073a573d6000803e3d6000fd5b508060008054906101000a900473ffffffffffffffffffffffffffffffffffffffff1673ffffffffffffffffffffffffffffffffffffffff167fa29484a0d47153a96f00a1369c6885bbc89e95e35273ee97c943c440f7c4c28260405160405180910390a350565b806003600082815260200190815260200160002060009054906101000a900460ff16610803576040517f08c379a00000000000000000000000000000000000000000000000000000000081526004016107fa90610e1d565b60405180910390fd5b600073ffffffffffffffffffffffffffffffffffffffff166001600083815260200190815260200160002060009054906101000a900473ffffffffffffffffffffffffffffffffffffffff1673ffffffffffffffffffffffffffffffffffffffff16146108a5576040517f08c379a000000000000000000000000000000000000000000000000000000000815260040161089c90610e5d565b60405180910390fd5b6000600260008481526020019081526020016000205490508034146108ff576040517f08c379a00000000000000000000000000000000000000000000000000000000081526004016108f690610dfd565b60405180910390fd5b6004600084815260200190815260200160002060009054906101000a900460ff1615610960576040517f08c379a000000000000000000000000000000000000000000000000000000000815260040161095790610e3d565b60405180910390fd5b336001600085815260200190815260200160002060006101000a81548173ffffffffffffffffffffffffffffffffffffffff021916908373ffffffffffffffffffffffffffffffffffffffff160217905550336005600085815260200190815260200160002060006101000a81548173ffffffffffffffffffffffffffffffffffffffff021916908373ffffffffffffffffffffffffffffffffffffffff160217905550823373ffffffffffffffffffffffffffffffffffffffff167fe9eb9987417efb172f3a419d7199599450643d60f3155c0194c0f37c33b7d49d83604051610a4b9190610ebd565b60405180910390a3505050565b60016020528060005260406000206000915054906101000a900473ffffffffffffffffffffffffffffffffffffffff1681565b60046020528060005260406000206000915054906101000a900460ff1681565b60008054906101000a900473ffffffffffffffffffffffffffffffffffffffff1681565b60026020528060005260406000206000915090505481565b60056020528060005260406000206000915054906101000a900473ffffffffffffffffffffffffffffffffffffffff1681565b600081359050610b2981610f31565b92915050565b600060208284031215610b4157600080fd5b6000610b4f84828501610b1a565b91505092915050565b60008060408385031215610b6b57600080fd5b6000610b7985828601610b1a565b9250506020610b8a85828601610b1a565b9150509250929050565b610b9d81610ee9565b82525050565b610bac81610efb565b82525050565b6000610bbf602683610ed8565b91507f4f6e6c7920746865206f776e65722063616e20706572666f726d20746869732060008301527f616374696f6e00000000000000000000000000000000000000000000000000006020830152604082019050919050565b6000610c25601483610ed8565b91507f496e636f72726563742076616c75652073656e740000000000000000000000006000830152602082019050919050565b6000610c65601283610ed8565b91507f41727420646f6573206e6f7420657869737400000000000000000000000000006000830152602082019050919050565b6000610ca5601d83610ed8565b91507f5472616e73616374696f6e20616c726561647920636f6e6669726d65640000006000830152602082019050919050565b6000610ce5601383610ed8565b91507f41727420697320616c726561647920736f6c64000000000000000000000000006000830152602082019050919050565b6000610d25601b83610ed8565b91507f4e6f20627579657220666f7220746869732061727420706965636500000000006000830152602082019050919050565b6000610d65601283610ed8565b91507f41727420616c72656164792065786973747300000000000000000000000000006000830152602082019050919050565b610da181610f27565b82525050565b6000602082019050610dbc6000830184610b94565b92915050565b6000602082019050610dd76000830184610ba3565b92915050565b60006020820190508181036000830152610df681610bb2565b9050919050565b60006020820190508181036000830152610e1681610c18565b9050919050565b60006020820190508181036000830152610e3681610c58565b9050919050565b60006020820190508181036000830152610e5681610c98565b9050919050565b60006020820190508181036000830152610e7681610cd8565b9050919050565b60006020820190508181036000830152610e9681610d18565b9050919050565b60006020820190508181036000830152610eb681610d58565b9050919050565b6000602082019050610ed26000830184610d98565b92915050565b600082825260208201905092915050565b6000610ef482610f07565b9050919050565b60008115159050919050565b600073ffffffffffffffffffffffffffffffffffffffff82169050919050565b6000819050919050565b610f3a81610f27565b8114610f4557600080fd5b5056fea26469706673582212203e70e63395253d149100c7bbe4479e390e305b9d5130b9b0513fc3ba7f12780564736f6c63430008000033",
  "linkReferences": {},
  "deployedLinkReferences": {}
}